:1000000004308A00292C00000A108A100A11820785
:1000100028340C34013406340A108A100A1182077D
:1000200020342034203446346534633468346134F9
:10003000643475347234613420340A34203420340A
:10004000203445346C346534743472346F346E3417
:1000500069346334613400340A108A100A1182074B
:100060000C34533465346E3468346134443465344C
:100070004C346934623465347234613463346134CD
:100080006F340A34203420342034203420342A348D
:100090002A342A342A342A3400340A108A100A11E5
:1000A00082070C3400340A108A100A118207413486
:1000B00043344534533453342E342E342E342E34BA
:1000C0002E3400340A108A100A1182070C3450347E
:1000D000723465347334733469346F346E34653418
:1000E00020342A340A345034613472346134203478
:1000F000533461346934723400340A108A100A119E
:100100008207533465346E346834613420344934A2
:100110006E3463346F3472347234653474346134E1
:100120000A3420342034203450347234653473342B
:10013000733469346F346E34653420342A340034B7
:1001400038308400831300080319B4280130F80004
:10015000F701F70BA928F80BA8284A30F700F70B8E
:10016000AF28B228800BA62808003F0EF039F70010
:100170000F3006057704860000000614BF2806101D
:1001800008000608F700060E0F39F800080083166D
:10019000061086100611831286100F30831606058E
:1001A000F038860083120615000006140000C120F6
:1001B0007808BF000610000006140000C12078086F
:1001C000BE0006100F3083160605860083123F0E10
:1001D000F700F030F70577083E04F8007808BE0015
:1001E000BE1BCD283C1C86103C188614000006114E
:1001F000000006103D0EBE000F30BE053E08BF00D9
:10020000B5203D080F39BE00BF00B52008000F30F3
:1002100083160605860006108610061183128610C6
:10022000061106100F30B800A0200130A9002908DF
:10023000033C031C23290330BF00B5200530B80060
:10024000A020A90A17290230BF00B5200530B80048
:10025000A020A9012908033C031C372929080420F0
:10026000AA00BC012A08BD00C720A90A2A293B2CE4
:10027000390B3B293E294030BA003F29BA010130F1
:100280003802BA073A088038BB00BC013B08BD0001
:10029000C72008003708073A031958290B3A0319F1
:1002A0005D29063A03196529023A03196B29702959
:1002B0000130B800B90038217529BC010130BD00FA
:1002C000C7200230B800A02075290130B8000230E4
:1002D000B90038217529BC011030BD00C72075292F
:1002E0000130BC003708BD00C720080034080739BA
:1002F000F700340CF800F80CF80C1F30F8057808FB
:1003000036078400831337188317F801F80AF70AB1
:100310008A29F80DF70B8929B5080319922978085D
:1003200080049529F8097808800508003408073901
:10033000F700340CF800F80CF80C1F30F8057808BA
:10034000350784008313361883170008F800F70A6E
:10035000AA29F80CF70BA929EB290D30A90029309F
:10036000AA002A30AB002B30AC002C30AD00283076
:10037000AE002F30AF002E30B000B1013108033C89
:10038000031C302A2A303107840083130008B3008D
:10039000B400B501B701B60176213308B400B50148
:1003A000B7018030B6007621B2013208023C031C4E
:1003B0001B2A2E303207840083130008B300B400D8
:1003C0000130B500B7018030B60076213308B400A3
:1003D000B601B50196297818192A3108B3000330FF
:1003E000B400F701F801330803103418F707F70CCD
:1003F000F80CB418F707F70CF80C3419F707F70CDA
:10040000F80CB419F707F70CF80C341AF707F70CC7
:10041000F80CB41AF707F70CF80C341BF707F70CB5
:10042000F80CB41BF707F70CF80C32087807013EFC
:10043000A900B20AD5292A303107840083130008A5
:10044000B300B4000130B500B701B601762133081E
:10045000B400B501B7018030B6007621B10ABE29DB
:1004600029080B3C0319362A2908372A0030F800DE
:100470005B2C83183E2A3F3084008313F701F80178
:10048000F901FA01BF01C001C101C2013E083D04EA
:100490003C043B0403197C2A2030C3000310B70D31
:1004A000B80DB90DBA0DBF0DC00DC10DC20D3E087E
:1004B0004202031D652A3D084102031D652A3C08CE
:1004C0004002031D652A3B083F02031C762A3B08B5
:1004D000BF023C08031C3C0FC0023D08031C3D0F3B
:1004E000C1023E08031C3E0FC2020314F70DF80DB3
:1004F000F90DFA0DC30B4E2A3F088000840A40080C
:100500008000840A41088000840A420880000800B4
:100510002008093C031C5B2B2408AE002308AD0017
:100520002208AC002108AB00B201B101B0010A30D1
:10053000AF002030B700B301B401B501B6012E08F9
:10054000FA002D08F9002C08F8002B08F70003101A
:10055000771CB82A2F08B30730080318300FB407E8
:1005600031080318310FB50732080318320FB607E8
:10057000B60CB50CB40CB30CFA0CF90CF80CF70C67
:10058000B70BA72A20087707A1007808A20000303F
:1005900003180130A2077908A300003003180130C6
:1005A000A3077A08A400003003180130A407AB01A8
:1005B0002B082C2000380319E12AAB0AB7004A2186
:1005C000D82A0630B800B9013821A408031D582BD9
:1005D0002308013C031C582B031DF82A2208863CE3
:1005E000031C582B031DF82A21089F3C031C582B81
:1005F000413084002408AE002308AD002208AC007E
:100600002108AB000408AF003B30B6009A30B500BB
:10061000CA30B400B3010A30B10083142B30840017
:1006200083132E08BA002D08B9002C08B8002B0837
:10063000B7003608BE003508BD003408BC003308DA
:10064000BB0039227808F708031D392B3108013A1D
:100650000319392B2F0803193A2B0F3931020319CB
:10066000332B03183F2BAF1B3F2B2F1B3A2B203074
:100670003B2BAF013030F7077708B7004A218310D2
:100680003608BA003508B9003408B8003308B70096
:10069000BE01BD01BC010A30BB0039227A08B60098
:1006A0007908B5007808B4007708B300B10B0D2BBA
:1006B000C830B800A02020080A3C0319882B200865
:1006C0000C3C031D732B21082502031D882B2208D7
:1006D0002602031D882B23082702031D882B2408CC
:1006E0002802031D882BA408031D882B2308003C27
:1006F00003189D2BFF3A031D882B2208853C031805
:100700009D2BFF3A031D882B21089F3C03189D2B2E
:10071000A401A301A201A1018611831686118312EF
:10072000AB012B082C20003803199A2BAB0AB70019
:100730004A21912BC830B800A02020080C3C031D92
:10074000E82B21082502031DE82B22082602031DA1
:10075000E82B23082702031DE82B24082802031D89
:10076000E82BA9012908033C031CDA2BAB012B0859
:100770004D2000380319C02BAB0AB7004A21B72B14
:100780000230AB00C830B800A020AB0BC22BAB01CD
:100790002B08532000380319D12BAB0AB7004A218C
:1007A000C82B0230AB00C830B800A020AB0BD32B55
:1007B000A90AB22BAB012B08622000380319E42BE5
:1007C000AB0AB7004A21DB2B8615831686118312EC
:1007D00020080C3C031D252C21082502031DFC2BA1
:1007E00022082602031DFC2B23082702031DFC2BD5
:1007F000240828020319252CAA012A08033C031CFB
:10080000252CAB012B084D20003803190B2CAB0A0B
:10081000B7004A21022C0230AB00C830B800A0203B
:10082000AB0B0D2CAB012B087D20003803191C2CC1
:10083000AB0AB7004A21132C0230AB00C830B80015
:10084000A020AB0B1E2CAA0AFD2B5030B800A02014
:100850005E2C03081F398300A001A401A301A2019B
:10086000A101A801A7013030A6003930A50007304A
:100870009F0083130729A90129080C2000380319B8
:10088000452CA90AB7004A213C2C0830A900FA30AF
:10089000B800A020A90B472CA90129082C2000385A
:1008A0000319562CA90AB7004A214D2C861183162C
:1008B00086118312AD297808A000882A5A2C63007B
:02400E00413F30
:00000001FF
;PIC16F628
;CRC=FAA8  CREATED="06-out-21 14:46"
